{
  "contractName": "RevocationRegistry",
  "abi": [
    {
      "inputs": [],
      "stateMutability": "nonpayable",
      "type": "constructor"
    },
    {
      "inputs": [],
      "name": "admin",
      "outputs": [
        {
          "internalType": "address",
          "name": "",
          "type": "address"
        }
      ],
      "stateMutability": "view",
      "type": "function",
      "constant": true
    },
    {
      "inputs": [
        {
          "internalType": "bytes32",
          "name": "",
          "type": "bytes32"
        }
      ],
      "name": "revoked",
      "outputs": [
        {
          "internalType": "bool",
          "name": "",
          "type": "bool"
        }
      ],
      "stateMutability": "view",
      "type": "function",
      "constant": true
    },
    {
      "inputs": [
        {
          "internalType": "bytes32",
          "name": "rootHash",
          "type": "bytes32"
        }
      ],
      "name": "revokeRoot",
      "outputs": [],
      "stateMutability": "nonpayable",
      "type": "function"
    },
    {
      "inputs": [
        {
          "internalType": "bytes32",
          "name": "rootHash",
          "type": "bytes32"
        }
      ],
      "name": "isRevoked",
      "outputs": [
        {
          "internalType": "bool",
          "name": "",
          "type": "bool"
        }
      ],
      "stateMutability": "view",
      "type": "function",
      "constant": true
    }
  ],
  "bytecode": "0x608060405234801561001057600080fd5b50336000806101000a81548173ffffffffffffffffffffffffffffffffffffffff021916908373ffffffffffffffffffffffffffffffffffffffff1602179055506103c2806100606000396000f3fe608060405234801561001057600080fd5b506004361061004c5760003560e01c8063328a93e8146100515780634294857f14610081578063c631b2ef146100b1578063f851a440146100cd575b600080fd5b61006b60048036038101906100669190610250565b6100eb565b6040516100789190610298565b60405180910390f35b61009b60048036038101906100969190610250565b61010b565b6040516100a89190610298565b60405180910390f35b6100cb60048036038101906100c69190610250565b610135565b005b6100d56101f1565b6040516100e291906102f4565b60405180910390f35b60016020528060005260406000206000915054906101000a900460ff1681565b60006001600083815260200190815260200160002060009054906101000a900460ff169050919050565b60008054906101000a900473ffffffffffffffffffffffffffffffffffffffff1673ffffffffffffffffffffffffffffffffffffffff163373ffffffffffffffffffffffffffffffffffffffff16146101c3576040517f08c379a00000000000000000000000000000000000000000000000000000000081526004016101ba9061036c565b60405180910390fd5b600180600083815260200190815260200160002060006101000a81548160ff02191690831515021790555050565b60008054906101000a900473ffffffffffffffffffffffffffffffffffffffff1681565b600080fd5b6000819050919050565b61022d8161021a565b811461023857600080fd5b50565b60008135905061024a81610224565b92915050565b60006020828403121561026657610265610215565b5b60006102748482850161023b565b91505092915050565b60008115159050919050565b6102928161027d565b82525050565b60006020820190506102ad6000830184610289565b92915050565b600073ffffffffffffffffffffffffffffffffffffffff82169050919050565b60006102de826102b3565b9050919050565b6102ee816102d3565b82525050565b600060208201905061030960008301846102e5565b92915050565b600082825260208201905092915050565b7f4f6e6c792061646d696e2063616e207265766f6b650000000000000000000000600082015250565b600061035660158361030f565b915061036182610320565b602082019050919050565b6000602082019050818103600083015261038581610349565b905091905056fea26469706673582212205c1974bd0c826f0c2049a2fe2e85106ab15fdd3f86ecac4085be78dec271b03a64736f6c63430008140033",
  "immutableReferences": {},
  "source": "// SPDX-License-Identifier: MIT\npragma solidity ^0.8.20;\n\ncontract RevocationRegistry {\n    address public admin;\n    mapping(bytes32 => bool) public revoked;\n\n    constructor() {\n        admin = msg.sender;\n    }\n\n    function revokeRoot(bytes32 rootHash) public {\n        require(msg.sender == admin, \"Only admin can revoke\");\n        revoked[rootHash] = true;\n    }\n\n    function isRevoked(bytes32 rootHash) public view returns (bool) {\n        return revoked[rootHash];\n    }\n}\n",
  "sourcePath": "/Users/rocco/Desktop/APS/ProjectAPS-GR34/blockchain/contracts/RevocationRegistry.sol",
  "compiler": {
    "name": "solc",
    "version": "0.8.20+commit.a1b79de6.Emscripten.clang"
  },
  "schemaVersion": "3.4.16",
  "updatedAt": "2025-07-17T20:27:49.188Z",
  "networkType": "ethereum",
  "devdoc": {
    "kind": "dev",
    "methods": {},
    "version": 1
  },
  "userdoc": {
    "kind": "user",
    "methods": {},
    "version": 1
  }
}